:020000040000fa
:080000000002040000000000f2
:020000040000fa
:04000800fa020000f8
:020000040000fa
:04000c000c030000e1
:020000040000fa
:0400100024030000c5
:020000040000fa
:0400140002030000e3
:020000040000fa
:0400180014030000cd
:020000040000fa
:04001c001c030000c1
:020000040000fa
:040020002c030000ad
:020000040000fa
:04002400aa0300002b
:020000040000fa
:04002800aa03000027
:020000040000fa
:04002c00aa03000023
:020000040000fa
:04003000aa0300001f
:020000040000fa
:04003400aa0300001b
:020000040000fa
:04003800aa03000017
:020000040000fa
:04003c00aa03000013
:020000040000fa
:04004000aa0300000f
:020000040000fa
:04004400aa0300000b
:020000040000fa
:04004800aa03000007
:020000040000fa
:04004c00aa03000003
:020000040000fa
:04005000aa030000ff
:020000040000fa
:04005400aa030000fb
:020000040000fa
:04005800aa030000f7
:020000040000fa
:04005c00aa030000f3
:020000040000fa
:04006000aa030000ef
:020000040000fa
:04006400aa030000eb
:020000040000fa
:040068008c03000005
:020000040000fa
:04006c006e0300001f
:020000040000fa
:04007000aa030000df
:020000040000fa
:04007400aa030000db
:020000040000fa
:04007800aa030000d7
:020000040000fa
:04007c00aa030000d3
:020000040000fa
:04008000aa030000cf
:020000040000fa
:04008400aa030000cb
:020000040000fa
:04008800aa030000c7
:020000040000fa
:04008c00aa030000c3
:020000040000fa
:04009000aa030000bf
:020000040000fa
:04009400aa030000bb
:020000040000fa
:04009800aa030000b7
:020000040000fa
:04009c00aa030000b3
:020000040000fa
:0400a000aa030000af
:020000040000fa
:0400a400aa030000ab
:020000040000fa
:0400a800aa030000a7
:020000040000fa
:0400ac00aa030000a3
:020000040000fa
:0400b000aa0300009f
:020000040000fa
:0400b400aa0300009b
:020000040000fa
:0400b800aa03000097
:020000040000fa
:0400bc00aa03000093
:020000040000fa
:0400c000aa0300008f
:020000040000fa
:0400c400aa0300008b
:020000040000fa
:0400c800aa03000087
:020000040000fa
:0400cc00aa03000083
:020000040000fa
:0400d000aa0300007f
:020000040000fa
:0400d400aa0300007b
:020000040000fa
:0400d800aa03000077
:020000040000fa
:0400dc00aa03000073
:020000040000fa
:0400e000aa0300006f
:020000040000fa
:0400e400aa0300006b
:020000040000fa
:0400e800aa03000067
:020000040000fa
:0400ec00aa03000063
:020000040000fa
:0400f000aa0300005f
:020000040000fa
:0400f400aa0300005b
:020000040000fa
:0400f800aa03000057
:020000040000fa
:0400fc00aa03000053
:020000040000fa
:04010000aa0300004e
:020000040000fa
:04010400aa0300004a
:020000040000fa
:04010800aa03000046
:020000040000fa
:04010c00aa03000042
:020000040000fa
:04011000aa0300003e
:020000040000fa
:04011400aa0300003a
:020000040000fa
:04011800aa03000036
:020000040000fa
:04011c00aa03000032
:020000040000fa
:04012000aa0300002e
:020000040000fa
:04012400aa0300002a
:020000040000fa
:04012800aa03000026
:020000040000fa
:04012c00aa03000022
:020000040000fa
:04013000aa0300001e
:020000040000fa
:04013400aa0300001a
:020000040000fa
:04013800aa03000016
:020000040000fa
:04013c00aa03000012
:020000040000fa
:04014000aa0300000e
:020000040000fa
:04014400aa0300000a
:020000040000fa
:04014800aa03000006
:020000040000fa
:04014c00aa03000002
:020000040000fa
:04015000aa030000fe
:020000040000fa
:04015400aa030000fa
:020000040000fa
:04015800aa030000f6
:020000040000fa
:04015c00aa030000f2
:020000040000fa
:04016000aa030000ee
:020000040000fa
:04016400aa030000ea
:020000040000fa
:04016800aa030000e6
:020000040000fa
:04016c00aa030000e2
:020000040000fa
:04017000aa030000de
:020000040000fa
:04017400aa030000da
:020000040000fa
:04017800aa030000d6
:020000040000fa
:04017c00aa030000d2
:020000040000fa
:04018000aa030000ce
:020000040000fa
:04018400aa030000ca
:020000040000fa
:04018800aa030000c6
:020000040000fa
:04018c00aa030000c2
:020000040000fa
:04019000aa030000be
:020000040000fa
:04019400aa030000ba
:020000040000fa
:04019800aa030000b6
:020000040000fa
:04019c00aa030000b2
:020000040000fa
:0401a000aa030000ae
:020000040000fa
:0401a400aa030000aa
:020000040000fa
:0401a800aa030000a6
:020000040000fa
:0401ac00aa030000a2
:020000040000fa
:0401b000aa0300009e
:020000040000fa
:0401b400aa0300009a
:020000040000fa
:0401b800aa03000096
:020000040000fa
:0401bc00aa03000092
:020000040000fa
:0401c000aa0300008e
:020000040000fa
:0401c400aa0300008a
:020000040000fa
:0401c800aa03000086
:020000040000fa
:0401cc00aa03000082
:020000040000fa
:0401d000aa0300007e
:020000040000fa
:0401d400aa0300007a
:020000040000fa
:0401d800aa03000076
:020000040000fa
:0401dc00aa03000072
:020000040000fa
:0401e000aa0300006e
:020000040000fa
:0401e400aa0300006a
:020000040000fa
:0401e800aa03000066
:020000040000fa
:0401ec00aa03000062
:020000040000fa
:0401f000aa0300005e
:020000040000fa
:0401f400aa0300005a
:020000040000fa
:0401f800aa03000056
:020000040000fa
:0401fc00aa03000052
:020000040000fa
:04020000aa0300004d
:020000040000fa
:04020400aa03000049
:020000040000fa
:04020800aa03000045
:020000040000fa
:04020c00aa03000041
:020000040000fa
:04021000aa0300003d
:020000040000fa
:04021400aa03000039
:020000040000fa
:04021800aa03000035
:020000040000fa
:04021c00aa03000031
:020000040000fa
:04022000aa0300002d
:020000040000fa
:04022400aa03000029
:020000040000fa
:04022800aa03000025
:020000040000fa
:04022c00aa03000021
:020000040000fa
:04023000aa0300001d
:020000040000fa
:04023400aa03000019
:020000040000fa
:04023800aa03000015
:020000040000fa
:04023c00aa03000011
:020000040000fa
:04024000aa0300000d
:020000040000fa
:04024400aa03000009
:020000040000fa
:04024800aa03000005
:020000040000fa
:04024c00aa03000001
:020000040000fa
:04025000aa030000fd
:020000040000fa
:04025400aa030000f9
:020000040000fa
:04025800aa030000f5
:020000040000fa
:04025c00aa030000f1
:020000040000fa
:04026000aa030000ed
:020000040000fa
:04026400aa030000e9
:020000040000fa
:04026800aa030000e5
:020000040000fa
:04026c00aa030000e1
:020000040000fa
:04027000aa030000dd
:020000040000fa
:04027400aa030000d9
:020000040000fa
:04027800aa030000d5
:020000040000fa
:04027c00aa030000d1
:020000040000fa
:04028000aa030000cd
:020000040000fa
:04028400aa030000c9
:020000040000fa
:04028800aa030000c5
:020000040000fa
:04028c00aa030000c1
:020000040000fa
:04029000aa030000bd
:020000040000fa
:04029400aa030000b9
:020000040000fa
:04029800aa030000b5
:020000040000fa
:04029c00aa030000b1
:020000040000fa
:0402a000aa030000ad
:020000040000fa
:0402a400aa030000a9
:020000040000fa
:0402a800aa030000a5
:020000040000fa
:0402ac00aa030000a1
:020000040000fa
:0402b000aa0300009d
:020000040000fa
:0402b400aa03000099
:020000040000fa
:0402b800aa03000095
:020000040000fa
:0402bc00aa03000091
:020000040000fa
:0402c000aa0300008d
:020000040000fa
:0402c400aa03000089
:020000040000fa
:0402c800aa03000085
:020000040000fa
:0402cc00aa03000081
:020000040000fa
:0402d000aa0300007d
:020000040000fa
:0402d400aa03000079
:020000040000fa
:0402d800aa03000075
:020000040000fa
:0402dc00aa03000071
:020000040000fa
:0402e000aa0300006d
:020000040000fa
:0402e400aa03000069
:020000040000fa
:0402e800aa03000065
:020000040000fa
:0402ec00aa03000061
:020000040000fa
:0402f000aa0300005d
:020000040000fa
:0402f400aa03000059
:020000040000fa
:0402f800aa03000055
:020000040000fa
:0402fc00aa03000051
:020000040000fa
:04030000aa0300004c
:020000040000fa
:04030400aa03000048
:020000040000fa
:04030800aa03000044
:020000040000fa
:04030c00aa03000040
:020000040000fa
:04031000aa0300003c
:020000040000fa
:10040000cf0221000eff24000e0188000000000032
:10041000000020000000e000020032000001200087
:100420002002880014000700cc0007000000e00054
:1004300003003a00c0da200001002000020037006b
:100440000000200001002000810f70000100320038
:100450000f000700000020000000e0000200320052
:100460000000020000000000700c0200000000000c
:100470000040da000000fe00200020000000e00044
:1004800002003200100020009001880000000600e9
:10049000a1028800800478000000eb001f003700f4
:1004a000e284440054a0b4009905ba00e2844400f8
:1004b00054a0b4009906ba00e284440054a0b400e9
:1004c0000006eb00476fde00fd07b200ae018800ba
:1004d000636ce10003003a000ad801000000eb0061
:1004e0000e003700606ce10008003a00004deb00a0
:1004f0000a05e800020039003420ec000af0a000f0
:100500008b05e900f9ff3e00040037006168e10057
:10051000010032000086eb000b00070019c7ba008b
:100520000e04e0001905ba0003003a000a00e000da
:10053000dbff3a0000000600fe07b200ae028800b2
:100540008a047800f5ff37000cd0a300e20f4d00bd
:100550001c00390089027800354dba000a05e80010
:10056000020039003420ec000af0a0008b05e900fd
:100570000f003200254dba000a05e80002003900dc
:100580003420ec000af0a0008b05e90008003200de
:100590000c00e0000600320015cdba000a05e800a4
:1005a000020039003420ec000af0a0008b05e900bd
:1005b0008984e80054a0b4000b00e000e2ff3a0098
:1005c000000006009902ba00055d78008b05e9007d
:1005d000f7ff3200c82ade00055d78008b05e900d0
:1005e000f3ff32000c00e000f1ff320019ddba0029
:1005f000eeff37003600f800c028a9000000eb002d
:10060000630507003600f80065050700c048a9002b
:10061000100020005e0507003600f800c068a90041
:10062000200020005a0507003600f800c088a90005
:1006300030002000560507003600f800c0a8a900c9
:1006400040002000520507003600f800c608a90047
:10065000700020004e0507003600f800214680009b
:1006600000102000008060000000e0000300320065
:10067000c508a900c00020004505070021468000ec
:1006800000002800008060000000e000030032004d
:10069000c5e8a900800020003d0507002146800034
:1006a00000022000008060000000e0000300320033
:1006b000c4a8a9009000200035050700204680004e
:1006c000700060000000e00003003200c488a90050
:1006d000a00020002e050700ffff37003600f800bd
:1006e000809fbe00829fbe00849fbe00869fbe008a
:1006f0000000fa0010808000000001000080fa0075
:100700004f03be004f02be004f01be004f00be00af
:100710003600f900004006003600f800809fbe0059
:10072000829fbe00849fbe00869fbe000000fa002c
:1007300020808000000001000080fa004f03be000e
:100740004f02be004f01be004f00be003600f90050
:10075000004006000040da000000fe000000050036
:1007600080007800010178003104e000fdff3a00cc
:0807700000005100000006002a
:020000040000fa
:100778000000fa0001e2a9000080fa00000006006b
:100788000000fa002228a9002208a9000080fa0027
:10079800000006000000fa001041800062006000be
:1007a8000000e00004003a00104180006100600091
:1007b8000000e000020032001000200001003700b5
:1007c8000000eb00004078000080fa0000000600fe
:1007d8000000fa002228a9002208a9000080fa00d7
:1007e800000006000000fa000228a9000208a9007b
:1007f8000080fa00000006000000fa000228a800a5
:100808000208a8000080fa00000006000200fa00b2
:10081800000f780010408000620060000000e000d7
:1008280010003a0010408000610060000000e00005
:100838000c003a0010408000620060000000e000f8
:1008480008003a0010408000610060000000e000ed
:1008580004003a0020b4210001002000ae04070083
:10086800f4ff37000080fa00000006000000fa00dc
:100878000110800000002800008060000000e000f7
:1008880007003a000422ef0000002800001088004a
:10089800b01520005010880010c0b30001003700c8
:1008a8000040eb000080fa00000006000000fa009b
:1008b8000110800000002800008060000000e000b7
:1008c80006003a000222a8000202a80000c2a800fe
:1008d80001e2a80010c0b300010037000040eb009f
:1008e8000080fa00000006000000fa000080fa000c
:1008f800000006000000fa000002a8000080fa00cc
:10090800000006000000fa000022a8000080fa009b
:10091800000006000000fa000042a8000080fa006b
:10092800000006000000fa00201080004f00de00e2
:10093800004078000080fb0000f0a7000000ea00fb
:100948000000ea004f00de00004078000080fa0056
:10095800000006000000fa000062a8000080fa000b
:10096800000006000000fa007010800000407800c7
:100978000080fa00000006000200fa00004f78002c
:100988001e80fb00601088000080fa00000006004e
:100998000000fa0000a2a9000082a8000080fa0066
:1009a800000006000000fa0000a2a8000082a800cb
:1009b8000080fa00000006000000fa000182a8008a
:1009c8000080fa00000006000000fa0020108000f5
:1009d800620060000000e00004003a00201080007f
:1009e800610060000000e0000200320010002000fa
:1009f800010037000000eb00004078000080fa009a
:100a0800000006000000fa00201080004300de000d
:100a1800614060000080fb0000f0a7000000ea00d1
:100a28000000ea004f00de00004078000080fa0075
:100a3800000006000000fa002110800000022000db
:100a48000080600000f0a7000000ea000000e90054
:100a58004f00de00004078000080fa000000060029
:100a68000000fa00201080004400de0061406000b1
:100a78000080fb0000f0a7000000ea000000ea0088
:100a88004f00de00004078000080fa0000000600f9
:100a98000000fa00201080004500de006140600080
:100aa8000080fb0000f0a7000000ea000000ea0058
:100ab8004f00de00004078000080fa0000000600c9
:100ac8000000fa00201080004200de006140600053
:100ad8000080fb0000f0a7000000ea000000ea0028
:100ae8004f00de00004078000080fa000000060099
:100af8000000fa000542a9000080fa000000060084
:100b08000000fa0002a2a8000080fa000000060017
:100b18000000fa0002a2a9000080fa000000060006
:100b28000000fa0002c2a8000080fa0000000600d7
:100b38000000fa0002c2a9000080fa0000000600c6
:100b48000200fa00000f78009e00780001808800fb
:100b58000080fa00000006000200fa00000f78008a
:100b68009e007800118088000080fa0000000600ce
:100b78000200fa00000f78009e00780021808800ab
:100b88000080fa00000006000200fa00004f78001a
:100b980010c0b300570007000000e0000200320058
:100ba800100020000b0037008009210011002000f0
:100bb800d903070000c8b3009e40780080cf5000da
:100bc80002003a0010002000020037001e407800a2
:100bd800480007000080fa00000006000600fa003e
:100be80020079800040207000000e000020032001d
:100bf800100020003d003700c0c7b3001b020700eb
:100c08000000e0000200320010002000370037002a
:100c180059020700e24f500002003a00100020007d
:100c2800320037002e009000cbfe070020479800c6
:100c380010c0b300104798002700370000ccb3005d
:100c4800004f78009e4090002e40900080cf5000ca
:100c580002003a0000c4b300004f78001e4078003c
:100c6800020207000000e00002003200100020002d
:100c78001e00370040020700e24f500002003a0011
:100c880010002000190037002e0090001040780056
:100c9800004f78002e0090000000e8002007980020
:100ca8001e407800f10107000000e0000200320059
:100cb800100020000d0037002f020700e24f5000ff
:100cc80002003a0010002000080037001e40900083
:100cd8000040e800104798009e4090002e40900089
:100ce80080cf5000d5ff3400d30107000080fa0000
:100cf800000006000200fa00004f7800be0107005d
:100d08000000e0000200320010002000220037003e
:100d1800c0c7b300d50107000000e00002003200a0
:100d2800100020001c00370013020700e24f50009b
:100d380002003a0010002000170037000040eb00c6
:100d4800ca0107000000e000020032001000200085
:100d58001100370008020700e24f500002003a0075
:100d6800100020000c0037001e407800bf0107006b
:100d78000000e000020032001000200006003700ea
:100d8800fd010700e24f500002003a001000200069
:100d980001003700a80107000080fa0000000600e3
:100da8000200fa00004f7800b07d2900a10220005f
:100db8005903070080c3b300ceff07000000e0001e
:100dc800020032001000200051003700d0822000bd
:100dd800010020005003070090c3b300c5ff0700bf
:100de8000000e00002003200100020004800370038
:100df800d0822000010020004703070040c1b30053
:100e0800bcff07000000e0000200320010002000d4
:100e18003f003700d0822000010020003e03070079
:100e28009e4078006fc060000047b000b1ff070027
:100e38000000e000020032001000200034003700fb
:100e4800d082200001002000330307001e80fb0031
:100e58004400de00004078004045b000a5ff0700d0
:100e68000000e000020032001000200028003700d7
:100e7800d08220000100200027030700c0c6b3006d
:100e88009cff07000000e000020032001000200074
:100e98001f00370090742f00410d20001e0307002b
:100ea80080c3b30093ff07000000e0000200320097
:100eb8001000200016003700d0822000010020001a
:100ec80015030700c0c0b3008aff07000000e00058
:100ed80002003200100020000d003700d0822000f0
:100ee800010020000c03070010c0b30081ff0700b9
:100ef8000000e0000200320010002000040037006b
:100f08001013220021002000030307000000eb005b
:100f18000080fa00000006000000fa0000882000a7
:100f2800101388001000200020138800c00028003b
:100f3800001388000080fa00000006000400fa0090
:100f4800000f7800110798000000000000138000cf
:100f5800620060000000e000fcff3a001e0078001c
:100f6800104078000080fb0040138800000000005b
:100f78000113800000022000008060000000e000f3
:100f8800fbff3a0040138000804078001e0090006c
:100f9800014878000080fa00000006001800fa00f6
:100fa800100f9800210f9800320f98000000eb00f6
:100fb800000f78000000eb00100798000000eb001d
:100fc800700798000000eb00000f98001000200048
:100fd800600798001e0890000000e00005003a0035
:100fe8000000eb00500798007000470020079800a9
:100ff80004003700ee009000510798009e0890000a
:10100800210798003e0890000000e00005003a0023
:101018000000eb00400798006e004700300798007a
:1010280005003700ee00900041079800be089000c8
:101038003107980000000000001380006200600083
:101048000000e000fcff3a001d003700001380009c
:10105800620060000000e00009003a002e009000e5
:10106800104078000080fb0040138800ae0090001c
:101078005e00900000804000200798001e0fe800e6
:101088000113800000022000008060000000e000e2
:101098000b003a0040138000804078003e0090002a
:1010a80001487800be0090004e009000008040008b
:1010b800300798001e0090000000e8001007980014
:1010c8002e0890009e007800808f5000dfff3900c6
:1010d800100037000113800000022000008060002b
:1010e8000000e0000b003a004013800080407800c8
:1010f8003e00900001487800be0090004e0090002d
:1011080000804000300798001e0090000000e800b2
:10111800100798009e0090002e089000808f5000c5
:10112800ecff39001e0078000080fa00000006007d
:101138000400fa00204798000e80e8008e0078002e
:101148007eff07001e4078000080fa0000000600bd
:101158000600fa00000f780011079800220798008f
:101168002e0190009e0090001e0078008bff070063
:101178000080fa00000006000000fa001113800049
:1011880000402000008060000000e00002003a00fb
:101198000000eb0001003700100020000080fa007a
:1011a800000006000000fa00001380000080fa002a
:1011b800000006000000fa00022cef000090210059
:1011c80020608800062cef000a2cef001a2cef0094
:1011d8001e2cef0000082000006188000008200095
:1011e800006288000008200000638800000c2b00c3
:1011f800e3c1200011322400d2bc2a008209780001
:101208008109780010618800000c2b00e3c12000e0
:1012180011322400d2bc2a008209780081097800a2
:1012280010628800000c2b00e3c12000113224005a
:10123800d2bc2a00820978008109780010638800ee
:10124800b00f2000e3c1200011322400d2bc2a00d4
:10125800820978008109780020618800b00f200099
:10126800e3c1200011322400d2bc2a008209780090
:101278008109780020628800b00f2000e3c12000b7
:1012880011322400d2bc2a00820978008109780032
:1012980020638800262cef00462cef00662cef0018
:1012a800282cef00482cef00682cef0040062000a7
:1012b80050618800400620005062880040062000e7
:1012c800506388002c2cef004c2cef006c2cef00a6
:1012d800322cef00522cef00722cef00342cef0070
:1012e800542cef00742cef00382cef00582cef0032
:1012f800782cef003a2cef005a2cef007a2cef00f4
:101308003c2cef005c2cef007c2cef003e2cef0017
:101318005e2cef007e2cef000000280000608800a3
:101328000080fa00000006000000fa000080fa00c1
:10133800000006000000fa00314080000020200074
:10134800008060000000e00002003200f6ff0700a5
:101358000728a9000080fa00000006000000fa0033
:101368000080fa00000006000000fa00314080000a
:1013780000202000008060000000e0000200320031
:10138800f6ff07000bc8a9000080fa00000006005d
:101398000000fa000080fa00000006000000fa00d1
:1013a8003140800000202000008060000000e00044
:1013b80002003200f6ff07000be8a9000080fa00df
:1013c800000006000000fa000080fa000000060095
:1013d8000000fa00314080000020200000806000fa
:1013e8000000e00002003200f6ff07000c08a90028
:1013f8000080fa00000006000000fa0014aea90000
:1014080018aea80014cea90018cea800b008200075
:1014180001002000c001070018aea900b008200094
:1014280001002000bc01070018cea9000000eb0055
:101438000080fa00000006000000fa0014aea900bf
:1014480018aea90014cea90018cea800b008200034
:1014580001002000b001070014aea80014cea800b7
:101468000000eb000080fa00000006000400fa000b
:101478002047980014aea90014cea900ae409000f1
:10148800014f780080c0b30010479800140037005f
:101498001e4078000004e00002003d0018aea800dd
:1014a8000100370018aea9001e4078000040400037
:1014b800004f780018cea80070112000010020000d
:1014c8009501070018cea900100d2000010020008a
:1014d800910107001e4090000040e9001047980065
:1014e8001e4090000004e000e9ff3a0014aea80096
:1014f8000000eb000080fa00000006000200fa007d
:1015080014aea80014cea90080c0b30010479800fc
:101518001300370050042000010020007e0107005e
:1015280018cea8001e40780000404000004f780008
:10153800b170800000022000008060000000e00020
:10154800020032001e04a000010037001e04a100a2
:1015580018cea9001e4090000040e90010479800ee
:101568001e4090000004e000eaff3a001e407800a8
:101578000080fa00000006000200fa0014aea8007d
:1015880014cea90018cea8005004200001002000a5
:1015980061010700b07080004500de006140600016
:1015a800004f780018cea9001e4078000080fa008d
:1015b800000006000000fa0014aea90018aea90049
:1015c80014cea90050042000010020005201070099
:1015d80018cea800b0082000010020004e01070026
:1015e80018cea90014aea8000000eb000080fa0095
:1015f800000006000000fa0014aea90018aea8000a
:1016080014cea90018cea800500420000100200024
:101618004101070018cea900500420000100200055
:101628003d01070014aea8000000eb000080fa009e
:10163800000006000000fa00003a80000080fa006e
:10164800000006000200fa00faff0700000f780009
:101658001e007800240007000004e00002003200a9
:1016680000002800710007001e0078002a0007000b
:101678000004e00002003200000024006b000700b4
:101688001e007800320007000004e000020032006b
:1016980000202000650007001e0078003a000700bf
:1016a8000004e00002003200000820005f0007008c
:1016b8001e007800420007000004e000020032002b
:1016c80000042000590007001e0078004a000700a7
:1016d8000004e0000200320000012000530007006f
:1016e8000080fa00000006000400fa0010079800c5
:1016f8000040eb00004f78001e0090000000e00062
:1017080002003d0010c0b300004f78001e40780072
:101718000080fa00000006000400fa001007980094
:101728000040eb00004f78009e009000000024006d
:10173800008060000000e0000200320010c0b3002a
:10174800004f78001e4078000080fa000000060074
:101758000400fa00100798000040eb00004f7800e2
:101768009e00900000202000008060000000e00043
:101778000200320010c0b300004f78001e4078000d
:101788000080fa00000006000400fa001007980024
:101798000040eb00004f78009e00900000082000f9
:1017a800008060000000e0000200320010c0b300ba
:1017b800004f78001e4078000080fa000000060004
:1017c8000400fa00100798000040eb00004f780072
:1017d8009e00900000042000008060000000e000ef
:1017e8000200320010c0b300004f78001e4078009d
:1017f8000080fa00000006000400fa0010079800b4
:101808000040eb00004f78001e0090007000600060
:101818000000e0000200320010c0b300004f780062
:101828001e4078000080fa00000006000200fa005e
:10183800000f78009e80ea00003a80000080600077
:10184800003a88000080fa00000006000000fa0054
:101858004027ef000080fa00000006000000fa00b0
:101868000060fe000080fa00000006000000fa0098
:10187800042ea900c084280001002000a60007004b
:1018880019cea900d0be240051012000a2000700f3
:10189800042ea80019cea800184ea800186ea8009b
:1018a800044ea800046ea800188ea800198ea8007f
:1018b800196ea80019eea80019aea800194ea800c4
:1018c800192ea800190ea80018eea800048ea8006a
:1018d8000080fa00000006000000fa00600007001f
:1018e800deff070010708000610060000000e0006b
:1018f8000c00320006d0bf000040e80006f0b70038
:1019080006d0bf00e54f50000400360050c0b300b9
:1019180006f0b70010c0b30008f0b7000770ef007a
:101928000a00370007d0bf000040e80007f0b70002
:1019380007d0bf00ea4f500003003600a0c0b30034
:1019480007f0b7000870ef000670ef0008d0bf007e
:101958000004e0000400320009d0bf000004e000e9
:1019680001003a00c1ff070008d0bf0009f0b70026
:10197800605f2a00a100200067000700d8ff370039
:101988000000fa0000202300203a88004827ef00d2
:101998004e27ef00d0122000303a88006027ef0071
:1019a8006227ef006427ef006627ef006a27ef0041
:1019b8006c27ef006e27ef00120020008007200040
:1019c800a1092000337420008049780081497800fb
:1019d8008249780012002000600420007105200070
:1019e8002374200080497800814978008249780072
:1019f80000000000103a8000610060000000e00074
:101a0800fcff3a0000000000113a800000022000ac
:101a1800008060000000e000fbff32000080fa0058
:101a2800000006000200fa00000f78002102800082
:101a3800200f2000008060001e0070002002880037
:101a48000080fa00000006000000fa00c3e8a800c1
:101a580000000000000000000080fa0000000600fe
:101a68000000fa0007000700c5ff07005100070043
:101a7800f5ff070000022000eaff07000080fa00d7
:101a8800000006000000fa00e00120002070880035
:101a9800c0f92f00c0708800100020000070880076
:101aa80030002000a07088000c2eef00202eef00e0
:101ab800e001200050708800c0f92f00f070880005
:101ac800062eef001a2eef000e2eef00222eef004a
:101ad8000080fa00000006000000fa00a8ff0700d6
:101ae8000080fa00000006000000fa00003a8000ba
:101af8000080fa00000006000000fa00d1fe07008e
:101b08000080fa00000006000000fa004fff0700fe
:081b18000080fa000000060045
:020000040000fa
:101b2000f03fb1000180b10006003500ee0309006e
:101b300000000000403fb1000180b100fbff3d000c
:101b40001000b000203fb000020035000080090006
:081b5000000000000000060087
:020000040000fa
:101b58000c10000020000000800000000a100000a7
:101b68000200000082000000ffff000000100000db
:101b780006000000800000000610000004000000bd
:081b88008000000000000000d5
:020000040000fa
:101b9000000f78009e00780051808800ffff37001a
:101ba0000000fa00c00021008007780040022100f8
:101bb000000188000080fa00000006000000fa0022
:081bc0000080fa00000006009d
:020000040000fa
:020000040005f5
:04570000ffffff00a8
:020000040000fa
:020000040005f5
:04572000ffff000087
:020000040000fa
:020000040005f5
:04573000f8ff00007e
:020000040000fa
:020000040005f5
:045738007bff0000f3
:020000040000fa
:020000040005f5
:0457400098ff0000ce
:020000040000fa
:020000040005f5
:04574800ffff00005f
:020000040000fa
:020000040005f5
:04575000fdff000059
:020000040000fa
:020000040005f5
:04575800000000004d
:020000040000fa
:020000040005f5
:045760000000000045
:020000040000fa
:020000040005f5
:04576800000000003d
:020000040000fa
:020000040005f5
:045770000000000035
:020000040000fa
:020000040005f5
:04577800feff000030
:020000040000fa
:020000040005f5
:04578000ffff000027
:020000040000fa
:020000040005f5
:04578800ffff00001f
:00000001FF
